S01800004763634170706C69636174696F6E34312E7372656326
S113000009C021C020C01FC01EC01DC01CC01BC011
S11300101AC019C011241FBECFE9CDBF10E0A0E65D
S1130020B0E0ECEBF0E002C005900D92A237B1070E
S1130030D9F720E0A2E7B0E001C01D92A338B207CF
S1130040E1F729D039C0DCCF6115710581F0640F67
S1130050751FFA01841BE199FECF982F9E0F9EBB5A
S113006091919DBBE29AE19AE617F707A1F70895EB
S1130070E199FECF6115710569F0640F751FFA01EE
S1130080841B982F9E0F9EBBE09A9DB39193E61715
S1130090F707B9F7089540E650E061E170E080E0C9
S11300A090E0D2DF42E750E061E170E080E090E070
S10F00B0DFDF80E090E00895F894FFCFBB
S11300BCF0E0E1EEF2E020F120656570726F6D30D6
S10500CC00002E
S9030000FC
